:0F0D550004352345673104397BBF551B0134003A
:100D4500758901758CFF758AA4D28CD2AFD2A92280
:100CE300E4FDFCEFFBC3ED9B7480F86C985015E4B6
:100CF300FBFA0BBB00010ABA07F8BB24F50DBD00D4
:040D0300010C80DF80
:010D070022C9
:0F0D6500758920758BFD758DFD759850D28E2286
:080D8B008F993099FDC29922F5
:0B0D8000120C017F41120BBD020D336D
:100B64007B007A0079437F52120B01EF70F2FB7A1B
:100B740000793E120A86EF70E7F54274352542F893
:100B8400E6FF743E2542F8E6FE6F600B7439254299
:100B9400F8E6FFEEB507070542E542B404DDE54299
:100BA400B404BD753D057534017F0F120CE3753D2A
:090BB40019E4F534120CE380A7EA
:0C0D7400120D45120D65120D80020B647B
:03000B00020CB72D
:100CB700C0E0C0D0C28C758CFF758AA4E534D3958B
:100CC7003D5004D2B18002C2B10534E534C394C8A3
:0C0CD7004003753400D28CD0D0D0E03245
:080B01008F088B098A0A890B99
:100B0900120D087D077F0D120C7C7D037F14120DD9
:100B19002085080E75250175260075270075280E94
:100B2900752900752A00752B0C7B007A00790E7FD8
:100B39000C120800EF7021E50D6410450C7019AB1B
:100B490009AA0AA90BE50E120A33AB09AA0AA90BCD
:0A0B5900900001E50F020A457FFE3F
:010B6300226F
:060A86008B088A09890AB1
:100A8C00E4F50C120D08E4FD7F0D120C7C7D807FCB
:100A9C000E120D0C750F937510207525027526001E
:100AAC0075270075280F752900752A00752B0D7B8D
:100ABC00007A00790F7F0C1208008F0BE50B702B5E
:100ACC00FF740F2FF8E6AB08AA09A90A8F82758369
:100ADC0000120A45740F2FF8E6620C0FBF04E27483
:100AEC000F2FF8E6650C6003750BFE7D807F0E12F0
:040AFC000D20AF0B0F
:010B000022D2
:100C0100D2B300C2B300D2B3007D0F7F01120C7CBE
:100C1100007D3D7F11120C7C7D1E7F2D120C7CE42A
:100C2100FD7F2C120C7C7D8D7F2A120C7C7D3E7FFA
:0E0C31002B120C7C7D407F15120C7C7F002264
:100BBD00EF64417039120D087D3D7F11120C7C7D63
:100BCD00867F17120C7C7D7F7F26120C7C7D1E7F0D
:100BDD002D120C7CE4FD7F2C120C7C7D8D7F2A1256
:100BED000C7C7D3E7F2B120C7C120D3380037FFF1E
:040BFD00227F002231
:040D08007D087F08DB
:040D0C008F328D3362
:100D1000E4AF32120C3FE533F45FFDAF32020C7CDE
:100C3F00E4FEC2B6C2B7EF25E0547E4480FF7D08C4
:100C4F00EF30E703D38001C392B5D2B6EF25E0FFB3
:100C5F00C2B6DDEC7D08D2B6EE25E0FEA2B4E433D9
:0C0C6F004206C2B6DDF0D2B7D2B6AF0626
:010C7B002256
:100C7C00C2B6C2B7EF25E0547EFF7E08EF30E70323
:100C8C00D38001C392B5D2B6EF25E0FFC2B6DEEC3D
:100C9C007E08ED30E703D38001C392B5D2B6ED25C3
:0A0CAC00E0FDC2B6DEECD2B7D2B60E
:010CB600221B
:040D2000AC07AB056C
:0F0D2400E4FE120C3FAE07AF04EB4EFD020C7C59
:080800008F218B228A23892439
:10080800752CFEE4F52DF52EE52124F4600C24FE6C
:10081800700E752D12752E108006752D77752E3079
:10082800E52D4480FD7F02120C7C7D807F04120D33
:100838000CE4FD7F01120C7C7D807F0A120D20E400
:10084800F530F531C3E5319525E5309400501FABFF
:1008580022AA23A924853182853083120A06FD7FC6
:1008680009120C7C0531E53170DA053080D6AD21EE
:100878007F01120C7CE521B40C077D807F0D120DE1
:10088800207530077531D07F04120C3F8F2FE5316A
:10089800153170021530E53145306009E52F20E04B
:1008A80004552E60E27D807F0D120D0CE531453038
:1008B80070030209697F06120C3FEF541B600302A4
:1008C8000966F52CE52F552D30E003752CFFE52141
:1008D800640C60030209697F0A120C3F8F2F7F0C9A
:1008E800120C3FEF5407FD6021E52F24FFFFE4348D
:1008F800FFFEEF7803C333CE33CED8F97C002DFF4B
:10090800EC3EAB29AA2AA92B800FE52F75F008A485
:10091800FFAB29AA2AA92BE5F08FF0120A67E52F69
:100928007003752F01E52FD394124003752F12E43D
:10093800F530F531C3E531952FE530940050227F2D
:1009480009120C3FAB26AA27A92885318285308356
:10095800EF120A450531E53170DA053080D6752C7D
:10096800FE7D807F0C120D20E4FD7F01120C7CAF10
:010978002C52
:01097900225B
:100D33007F14120C3FEF540370077D037F14120DD1
:010D4300208F
:010D4400228C
:070D93007D037F14020D0C2B
:0300000002097A78
:0C097A00787FE4F6D8FD7581440209C1C5
:100A0600BB010CE58229F582E5833AF583E02250A5
:100A160006E92582F8E622BBFE06E92582F8E222EF
:0D0A2600E58229F582E5833AF583E4932209
:100A3300BB010689828A83F0225002F722BBFE01A2
:020A4300F3229C
:100A4500F8BB010DE58229F582E5833AF583E8F0E7
:100A5500225006E92582C8F622BBFE05E92582C893
:020A6500F2227B
:100A6700BB010A89828A83F0E5F0A3F0225006F7DA
:0F0A770009A7F01922BBFE06F3E5F009F31922D7
:10098600020D74E493A3F8E493A34003F68001F206
:1009960008DFF48029E493A3F85407240CC8C33372
:1009A600C4540F4420C8834004F456800146F6DF41
:1009B600E4800B0102040810204080900D55E47E6F
:1009C600019360BCA3FF543F30E509541FFEE49336
:1009D600A360010ECF54C025E060A840B8E493A3FD
:1009E600FAE493A3F8E493A3C8C582C8CAC583CA28
:1009F600F0A3C8C582C8CAC583CADFE9DEE780BEE0
:010D6400008E
:00000001FF
