:03000000020800F3
:0C080000787FE4F6D8FD758109020847F6
:0308F000010800FC
:0D08E2007FA77EAB7D10DDFEDEFADFF600A5
:0108EF0022E6
:1008CF00758900438901758CFF758AA4D2A9D28CD2
:0308DF00D2AF2273
:03000B0002088C5C
:10088C00C0E0C0D0C28C758CFF758AA4E508D395E6
:10089C00095004D2B78002C2B70508E508C394C852
:0C08AC004003750800D28CD0D0D0E032A0
:1008B8001208CF7509057508011208E275090FE4D9
:0708C800F5081208E280ECC4
:10080C000208B8E493A3F8E493A34003F68001F242
:10081C0008DFF48029E493A3F85407240CC8C333ED
:10082C00C4540F4420C8834004F456800146F6DFBC
:10083C00E4800B01020408102040809008F0E47E54
:10084C00019360BCA3FF543F30E509541FFEE493B1
:10085C00A360010ECF54C025E060A840B8E493A378
:10086C00FAE493A3F8E493A3C8C582C8CAC583CAA3
:10087C00F0A3C8C582C8CAC583CADFE9DEE780BE5B
:0108F3000004
:00000001FF
